S00E000050444D5F76332E737265632D
S113000071C0000077C0000075C0000073C000001C
S113001071C000006FC000006DC000006BC0000024
S113002069C0000067C00000C8C0000063C00000D1
S113003061C000005FC000005DC000005BC0000044
S113004059C0000057C0000055C0000053C0000054
S113005051C000004FC000004DC000004BC0000064
S113006049C0000047C0000045C0000043C0000074
S113007041C000003FC000003DC000003BC0000084
S113008039C0000037C0000035C0000033C0000094
S113009031C000002FC000002DC000002BC00000A4
S11300A029C0000027C0000025C0000023C00000B4
S11300B021C000001FC000001DC000001BC00000C4
S11300C019C0000017C0000015C0000013C00000D4
S11300D011C000000FC000000DC000000BC00000E4
S11300E009C0000011241FBECFEFD1E2DEBFCDBF97
S11300F060D05FC285CFE5E0F1E0808188608083D5
S1130100A19AE2E0F1E0808180618083759A749A1B
S113011080818F7B80832F9AEBE0F1E08081806186
S113012080830895089A84B1866984B98AB18AB9AA
S11301308DB18B638DB983B3836283BBE1E0F1E05E
S1130140808188678083E4E0F1E080818861808336
S1130150EAE0F1E0808188638083109885B1897634
S113016085B98BB18F738BB98EB1817C8EB984B311
S11301708C7D84BBE2E0F1E0808187788083E5E0D8
S1130180F1E08081877E8083EBE0F1E08081877CF1
S113019080830895C7DFE8E6F0E080818260808391
S11301A0ECE6F0E0808180688083F4D182E0FBC0DB
S11301B00895F0DF78949FDFFFCF1F920F920FB660
S11301C00F9211240BB60F922F933F934F935F938B
S11301D06F937F938F939F93AF93BF93EF93FF930B
S11301E0CF93DF93CDB7DEB72D97DEBFCDBF9E0192
S11301F0275F3F4FAE014F5F5F4FBE01635F7F4F8D
S113020082E087D189859A85AB85BC850197A10554
S1130210B94009F05EC08D85843010F0719A01C038
S11302207198898180FF06C0E2E0F1E080818062FC
S1130230808305C0E2E0F1E080818F7D8083898145
S113024081FF06C0EBE0F1E080818860808305C017
S1130250EBE0F1E08081877F8083898182FF06C0A3
S1130260EBE0F1E080818062808305C0EBE0F1E0A7
S113027080818F7D8083898183FF06C0E2E0F1E085
S113028080818860808305C0E2E0F1E08081877F1F
S11302908083898184FF02C02C9A01C02C988981B3
S11302A085FF02C0739A01C07398898186FF06C0D6
S11302B0E2E0F1E080818064808305C0E2E0F1E067
S11302C080818F7B80838981882314F4749A01C090
S11302D074982D960FB6F894DEBF0FBECDBFDF9194
S11302E0CF91FF91EF91BF91AF919F918F917F91AA
S11302F06F915F914F913F912F910F900BBE0F9093
S11303000FBE0F901F901895823031F0843031F079
S1130310813029F41098089510980895109808953C
S1130320823031F0843031F0813029F4109A08950C
S1130330109A0895109A08951F93CF93DF93C82FAE
S1130340162FD42FE1DF82E01FD1812F1DD18D2FF5
S11303501BD18C2FE5DFDF91CF911F910895CF93AF
S1130360DF93C82FD62FD0DF8D2F0ED18C2FD8DF5F
S1130370DF91CF9108950F931F93CF93DF93C82FED
S1130380062FD42F122FC0DF85E0FED0802FFCD0A3
S1130390812FFAD08D2FF8D08C2FC2DFDF91CF912F
S11303A01F910F910895CF93C82F60ECD8DF20EEF2
S11303B040E86FE08C2FDFDF44E06AE28C2FBCDF83
S11303C04AEC69E28C2FB8DF41E068E28C2FB4DF9D
S11303D043E06BE28C2FB0DF41E06DE08C2FACDFAB
S11303E028EE48E06FE08C2FC6DFCF9108957F920E
S11303F08F929F92AF92BF92CF92DF92EF92FF9231
S11304000F931F93CF93DF93CDB7DEB72D970FB61E
S1130410F894DEBF0FBECDBF782E4A015901613773
S113042028F40F2EF0E9FF2EF02D04C00F2EF4E96E
S1130430FF2EF02D872D68DF8F2DA6D0CE010196DB
S11304407C016E019EE0C90ED11C80E09DD0F701B5
S113045081937F01EC15FD05C1F72A81898190E024
S1130460A0E0B0E0072E75E1880F991FAA1FBB1FFB
S11304707A95D1F7702D3B81932B3C81832B422FAE
S1130480407E50E060E070E0032E3DE0440F551FD5
S1130490661F771F3A95D1F7302D842B952BA62B09
S11304A0B72B2370A22BF80180839183A283B3839B
S11304B04D814F70F401408350E0BE016A5F7F4F6D
S11304C0C5016ED0872D2CDF2D960FB6F894DEBFB4
S11304D00FBECDBFDF91CF911F910F91FF90EF9091
S11304E0DF90CF90BF90AF909F908F907F900895B2
S11304F0CF93DF93C82F08DF80EB46D080E044D051
S1130500D82F80E041D08C2F0BDF8D2FDF91CF913E
S11305100895AF92BF92CF92DF92EF92FF920F9322
S11305201F93CF93C82F7B016A015901E1DF8295A4
S1130530869586958370823059F0833081F08130BE
S1130540C9F485019601A70161E68C2F50DF12C022
S113055085019601A70161E78C2F49DF0BC0850156
S11305609601A70161E68C2F42DF9601A70161E79E
S11305708C2F3DDFCF911F910F91FF90EF90DF9073
S1130580CF90BF90AF9008958EBD0DB407FEFDCF00
S11305908EB5089581E58CBD81E08DBD1EBC0895A6
S11305A0FB01DC0102C001900D9241505040D8F78C
S10905B00895F894FFCF4A
S9030000FC
